:020000040800F2
:10000000A8040120650300089B500008CB440008A9
:1000100099500008251100083D5900080000000013
:10002000000000000000000000000000A502000821
:1000300049130008000000000103000813570008DE
:100040007F0300087F0300087F0300087F03000888
:100050007F0300087F0300087F0300087F03000878
:100060007F0300087F0300087F0300087F03000868
:100070007F0300087F0300087F0300087F03000858
:100080007F0300087F0300087F0300087F03000848
:100090007F0300087F0300087F0300087F03000838
:1000A0007F0300087F0300087F0300087F03000828
:1000B0007F0300087F0300087F0300087F03000818
:1000C0007F0300087F0300087F0300087F03000808
:1000D0007F0300087F0300087F0300087F030008F8
:1000E0007F0300087F0300087F0300087F030008E8
:1000F0007F0300087F0300087F0300087F030008D8
:100100007F0300087F0300087F0300087F030008C7
:100110007F0300087F030008D95700087F03000809
:100120007F0300087F0300087F0300087F030008A7
:100130007F0300087F0300087F0300087F03000897
:100140007F0300087F0300087F0300087F03000887
:100150007F0300087F0300087F0300087F03000877
:100160007F0300087F0300087F0300087F03000867
:100170007F0300087F0300087F03000800000000E1
:100180007F0300087F0300087F0300087F03000847
:100190007F0300087F0300087F0300087F03000837
:1001A000A54A00087F030008291200087F03000801
:1001B000F512000800F002F800F065F80AA090E8D7
:1001C000000C82448344AAF10107DA4501D100F012
:1001D0005AF8AFF2090EBAE80F0013F0010F18BF7A
:1001E000FB1A43F00103184758AB010078AB01003C
:1001F0000A444FF0000C10F8013B13F0070408BF4D
:1002000010F8014B1D1108BF10F8015B641E05D0EA
:1002100010F8016B641E01F8016BF9D113F0080F9F
:100220001EBF10F8014BAD1C0C1B09D16D1E58BF31
:1002300001F801CBFAD505E014F8016B01F8016B68
:100240006D1EF9D59142D6D37047000000230024DB
:1002500000250026103A28BF78C1FBD8520728BFD6
:1002600030C148BF0B6070471FB519F000FA9DE818
:10027000030000F0F1FA00F0FBF91FBD10B50020FB
:1002800000F073FA10BD00F053FB1146FFF7ECFFCE
:1002900017F072F800F08BFB03B4FFF7EFFF03BC1D
:1002A00000F0F8F92C4B19680868B0E8F04F80F3BB
:1002B0000988BFF36F8F4FF0000080F311887047FB
:1002C0000000000008480068006880F308884FF0CC
:1002D000000080F3148862B661B6BFF34F8FBFF39E
:1002E0006F8F00DF00BF00BF08ED00E0DFF80C00FB
:1002F000016841F470010160704700BF88ED00E0C3
:10030000EFF30980BFF36F8F134B1A681EF0100FC5
:1003100008BF20ED108A20E9F04F106009B44FF0BB
:10032000500080F31188BFF34F8FBFF36F8F18F029
:1003300049F94FF0000080F3118809BC196808687A
:10034000B0E8F04F1EF0100F08BFB0EC108A80F339
:100350000988BFF36F8F7047E4000020EFF305803A
:10036000704700000948804709480047FEE7FEE75C
:10037000FEE7FEE7FEE7FEE7FEE7FEE7FEE7FEE755
:1003800004480549054A064B70470000BD57000860
:10039000B5010008A8E40020A8040120A8F400206A
:1003A000A8F4002053EA020C00F069802DE9F04B1C
:1003B0004FF00006002B1FBFB3FA83F503FA05F4D4
:1003C00024FA05F65E4012BF1643B2FA82F502FA2D
:1003D00005F4C5F120051EBF22FA05FC44EA0C0411
:1003E000203556EA044C4FEA144418BF641C4FF001
:1003F00000084FF00009904271EB030C39D300293B
:1004000019BFB1FA81F701FA07F6B0FA80F700FADE
:1004100007F6C7F120071EBF20FA07FC46EA0C06C4
:100420002037B6FBF4FCA7EB0507103F07F01F0BC6
:10043000CBF120060CFA0BFB2CFA06F644BFB346B0
:100440000026202FA4BF5E464FF0000B5BEA060C8F
:1004500008BF4FF0010B19EB0B09ABFB027C48EB1B
:100460000608C01B06FB02CC0BFB03CC71EB0C0196
:10047000C1E70B46024641464846BDE8F08B13B53E
:100480004FF000004FF00001AFF30080BDE81C40CA
:10049000704710B54C1084EA530404D54042C1F1B2
:1004A000000138BF491E1B4204D55242C3F100036C
:1004B00038BF5B1EFFF776FF14F0804F04D0404238
:1004C000C1F1000138BF491E14F0004F04D0524260
:1004D000C3F1000338BF5B1E10BD10B5002000F053
:1004E00065F9FFF7CBFEBDE81040012000F0D2B85F
:1004F0002DE9F041074615460E46102000F0D4F8CD
:1005000004000AD06760C4E9026500F0C9F8016818
:10051000216004600020BDE8F0810120FBE7032A90
:1005200040F2308010F0030C00F0158011F8013B10
:10053000BCF1020F624498BF11F801CB00F8013BF7
:1005400038BF11F8013BA2F1040298BF00F801CBBB
:1005500038BF00F8013B11F0030300F02580083A92
:10056000C0F0088051F8043B083A51F804CBA0E8E9
:100570000810F5E7121D5CBF51F8043B40F8043B3E
:10058000AFF30080D20724BF11F8013B11F801CB73
:1005900048BF11F8012B24BF00F8013B00F801CB44
:1005A00048BF00F8012B704710B5203AC0F00B800F
:1005B000B1E81850203AA0E81850B1E81850A0E867
:1005C0001850BFF4F5AF5FEA027C24BFB1E81850C1
:1005D000A0E8185044BF18C918C0BDE810405FEA31
:1005E000827C24BF51F8043B40F8043B08BF7047AD
:1005F000D20728BF31F8023B48BF11F8012B28BFB2
:1006000020F8023B48BF00F8012B704702F0FF03BF
:1006100043EA032242EA024200F0D8B84FF0000257
:1006200000B5134694469646203922BFA0E80C50E8
:10063000A0E80C50B1F12001BFF4F7AF090728BFC3
:10064000A0E80C5048BF0CC05DF804EB890028BF3F
:1006500040F8042B08BF704748BF20F8022B11F068
:10066000804F18BF00F8012B7047704770477047E4
:1006700070B5064C7C44064D7D4403E02068204460
:100680008047241DAC42F9D170BD0000E8A60100EE
:10069000F8A6010001491820ABBEFEE726000200C3
:1006A00000487047F0AF002070B5064600F0B4F87F
:1006B000056806F10B0020F00704B4429CBF00203F
:1006C00070BD2B466A68BAB11068A04210D304F11D
:1006D000080188423CBF5068586007D35168101920
:1006E00041601168091B016058601460101D70BDE5
:1006F00013465268002AE7D12146284600F098F8B0
:100700000028DED170BD70B50446051F00F084F8E6
:100710000068002C14BF446870BD002C18BFAC42A8
:100720003CBF20466468F8D301680A18AA4218BF83
:10073000456003D12A6805461144016028684119C3
:10074000A1421CBF6C6070BD61686960216808448B
:10075000286070BD10B500F063F8006810BD10B5DA
:10076000044600F05DF8046010BD2DE9F041064636
:10077000FFF796FF8046454613E016B1E068B042A9
:100780000ED120682860D4E90101D8F800708847AC
:100790002046FFF7B8FFD8F80000B842EBD100E0E0
:1007A00025462C68002CE8D1BDE8F08110B500F09A
:1007B0008FF8BDE8104000F085B810B500F0A0F843
:1007C000BDE8104000F07EB84FF000020429C0F0F0
:1007D000128010F0030C3FF423AFCCF1040CBCF1F9
:1007E000020F18BF00F8012BA8BF20F8022BA1EBC5
:1007F0000C01FFF715BF5FEAC17C24BF00F8012B95
:1008000000F8012B48BF00F8012B704700487047E3
:10081000B8AF00207047000000487047C0AF00200C
:1008200000487047B8AF0020704770477047704766
:1008300038B504460A4600206946AFF30080002818
:1008400008BF38BD02460099204600F096F8012006
:1008500038BD012000F0CDB8F8B5AFF300800546F3
:1008600000200C46102000BF0646A819A0420DD952
:10087000324669460020AFF30080070008BF00F051
:10088000B8F80098A04218BF0546C419FFF7C4FF86
:1008900005600746F01D20F007004619284600F0C5
:1008A0000AF8B44208BFF8BDA21B31463868BDE85B
:1008B000F84000F062B800210160C0E90110704703
:1008C00010207047002801D0FFF7E4BE70470000F9
:1008D00010B5002102A000F073F8012010BD000047
:1008E000534947414252543A2041626E6F726D61E2
:1008F0006C207465726D696E6174696F6E000000C2
:1009000010B5002102A000F05BF8012010BD00002E
:100910005349475056464E3A2050757265207669C5
:10092000727475616C20666E2063616C6C65640026
:100930007546FFF76BFFAE4605006946534620F04B
:100940000700854618B020B5FFF71AFDBDE8204026
:100950004FF000064FF000074FF000084FF0000B7B
:1009600021F00701AC46ACE8C009ACE8C009ACE82E
:10097000C009ACE8C0098D467047034640688C4604
:10098000002818BF88423CBF03464068F8D3186867
:100990001844884207D00CF1030020F00700001D26
:1009A000411A521A0146081D0A60FFF7ACBE10B585
:1009B0000446AFF300802046BDE81040FFF76CBC52
:1009C00070B505460C460A2000E06D1C00F018F8D2
:1009D00035B128780028F8D102E0641C00F010F846
:1009E00014B120780028F8D1BDE870400A2000F04A
:1009F00007B810B500F00CF8BDE81040FFF762BF73
:100A000008B569468DF800000320ABBE08BD0000A4
:100A100010B5012805D0002103A0FFF7D1FF012068
:100A200010BD09A1F8E7000053494752544D454D08
:100A30003A204F7574206F662068656170206D657F
:100A40006D6F7279000000003A2048656170206D7A
:100A5000656D6F727920636F727275707465640072
:100A60000349044A31F8101052F8200001F0ECBE9E
:100A7000C09601089400002030B51D4A044687B096
:100A80001368002043F0010313601268194D02F04F
:100A900001020592184B0222E9B1012919D135F85A
:100AA0001410CDE902024FF48810CDE9001053F87C
:100AB0002400694601F0AEFDAD1C002215F81400BB
:100AC0000F2140B202F0E0FB15F8140040B202F032
:100AD000CEFB07B030BD35F81410CDE90010CDE9DC
:100AE000020253F82400694601F094FDF1E700008A
:100AF00030380240C096010894000020084910B523
:100B000006480860084602F00AFD08B1012010BD41
:100B10000021034800F05EF8002010BD001000A086
:100B20006C17002000B591B04FF480700690EB2058
:100B300000904FF4406007904FF400500390002065
:100B40004FF04071CDE908010A2105910B900C90FE
:100B50000D900F900EAA6946034802F049FD002847
:100B600000D0012011B000BD6C17002010B5184C4A
:100B700016482060204602F0D2FCD0B90021204661
:100B800000F05CF801206060A0601020E0600005CB
:100B900090FAA0F0B0FA80F0401E20614FF480601F
:100BA00060610020A061E0612062204602F0CCFC80
:100BB00008B1012010BD064804F028FD20B9044802
:100BC00004F0DEFC0028F5D0042010BD001000A0C9
:100BD0006C17002010B55B2002F038FB4021144850
:100BE00001F052FC134C4FF48061204601F04CFCA4
:100BF000A115204601F048FC6115204601F044FC97
:100C00008021204601F040FC4021204601F03CFCC0
:100C10000948016841F002010160016821F0020108
:100C2000016005482030016821F00201016010BD1B
:100C300000040240001402401838024070B52C48ED
:100C400086B00024016841F002010160006800F0F4
:100C50000200059026482038016841F00201016039
:100C6000016821F00201016021480838016841F063
:100C700002010160016801F002010591016841F083
:100C80002001016000680A2500F020000590402046
:100C9000009002200190012002900320CDE903057D
:100CA0006946144801F0B6FC4FF480600294124E7D
:100CB0000090092469463046049401F0ABFC4FF4DF
:100CC0004070009069460495304601F0A3FCC020B6
:100CD000009069460494304601F09CFC00220F21EC
:100CE0005B2002F0D1FA5B2002F0C1FA06B070BDC1
:100CF000383802400004024000140240094910B58F
:100D000007480860084603F01DFA074C28B9002080
:100D100060700146034800F08BF8607810BD000059
:100D2000400100A078180020B800002070B51B48D2
:100D300019490423016000F13401022207248B6069
:100D4000C1E90024C1E903424A618A610024446088
:100D500020218460C0E90331402141614FF4C0711A
:100D6000C0E90614910201624900C0E90914214654
:100D700000F072F809490948343103F0F1F9084DDF
:100D800010B10120287000E02C7040F2695000F092
:100D900009F8287870BD0000400100A078180020F4
:100DA000B80000202DE9F843204C0025012610272B
:100DB0000095C4E90067C4E9026581464FF6FF78F3
:100DC00021464246A1F1500003F04AFA012001F009
:100DD000CFFA0220C4E90007C4E902652146424671
:100DE000A1F1500003F03CFA0320C4E900070820F9
:100DF000C4E9020521464246A1F1500003F030FA51
:100E00004FF40C700090C4E902600421C4E900179B
:100E100021464246A1F1500003F022FA4946A4F1CE
:100E20005000BDE8F84303F003BA0000C8180020E2
:100E300010B500280AD0382002F008FA0549044805
:100E40000860BDE81040084600F0E3BC10BD00009B
:100E5000106402401818002030B587B005007DD01E
:100E600055480024016841F00101016000685249C1
:100E700000F0010008390590086840F4800008601F
:100E8000086800F480000590086840F004000860DD
:100E9000086800F004000590086840F00800086049
:100EA000086800F008000590086840F0100008602D
:100EB000086800F010000590086840F02000086005
:100EC000086800F020000590086840F040000860C5
:100ED000086800F040000590086840F08000086055
:100EE000086800F080000590086840F48070086091
:100EF0000868012100F4807005900220CDE901010D
:100F000003900C200091049069462C4801F082FB6C
:100F10004CF2037000906946294801F07BFB4FF6C4
:100F2000837000906946274801F074FB4FF63F003C
:100F300000906946244801F06DFB48F233100090A0
:100F40006946224801F066FB4FF60C700090694636
:100F50001F4801F05FFB40F2FF6000E02AE00090D4
:100F600069461C4801F056FB1B498020C1E901403D
:100F70008000C86040000861800048618000C1E9CD
:100F80000604C000C1E908040320C1E90A041348AB
:100F90000C630860296308468D6300F03AFC0E4834
:100FA00000F068FC00220521382002F06DF938209D
:100FB00002F05DF907B030BD383802400008024049
:100FC000000C0240001002400014024000180240D1
:100FD000001C024000200240B817002010640240AC
:100FE0002DE9FE4F0746354E0020009070680169DC
:100FF000307888473870C0B300240DF1040902AD81
:1010000006F1080A06F1100B52E000BF706805EB0C
:101010004402C846436909EB440130789847707828
:10102000010707D538F8142035F8143028F81430A3
:1010300025F81420810706D538F81420A2F21F32B3
:10104000524228F81420400706D535F81400A0F2C3
:10105000DF10404225F8140038F814005AF8242014
:101060005146904202D9821A01E024E0121A1FFA76
:1010700082F835F814205BF824C05B46624502D93B
:10108000A2EB0C0C01E0ACEB020C1FFA8CFCC4448C
:10109000BCF1050F03D941F8240043F8242007EBE5
:1010A00044003AF8241041803BF82410C180641CAD
:1010B0003878A042AAD80098BDE8FE8FBC00002076
:1010C0002DE9F041154D164C884607462968002643
:1010D00020788847696854208847C0B211280BD00F
:1010E0006968702088477021C0B22170112805D02E
:1010F00003263046BDE8F0815420207065604745E6
:1011000001D2012000E00C206070A9682078884797
:101110006068C16820788847EBE700006400002021
:10112000BC000020FEE70000354A30B413684FF0E1
:10113000000C23F001031360324A1368C3F30B144D
:101140000123A4F54065243D0ED01468C4F30B14AC
:10115000A4F54065273D07D01268C2F30B12A2F533
:101160005064223C32D01AE0274A1268BAB9274AA2
:10117000D2F800C0CCF30B0CBCF58A6F19D0D2F8B2
:1011800000C0CCF30B0CACF58064833C11D012682A
:10119000C2F30B02A2F5806CBCF1850C09D01C4A8D
:1011A00093609368002BFCD110601068884223D0B4
:1011B00009E0184A13601368002BFCD1164A10602E
:1011C0001068884218D030BC00207047134A12685B
:1011D000C2F30B02A2F58064863C13BF6046104A3E
:1011E000136030BC18BF70471368002BFCD10D4A48
:1011F000106010688842E6D130BC012070470000C2
:10120000002000E000ED00E0002004E00010005CA1
:1012100000300240084C0258004C0258F08F004643
:10122000084C0246004C0246014800F0CDB90000CF
:10123000A414002001681823CAB2103AB2FBF3F2DA
:10124000054B6FF30901032A9B5CC36500D9091D97
:101250008165084670470000C496010810B5014634
:1012600000208B698A6A4FF0C07453B1B3F5005FF8
:1012700015D072B1012A0CD0022A0AD0032A09D152
:1012800004E01AB1012A06D0022A03D1C96AC901B1
:1012900000D5012010BDC96AA142FAD010BD002AB4
:1012A000F7D0012AF2D0022AF3D0032AF3D010BDDE
:1012B00010B542EA8111029C41EA032141EA04414E
:1012C000C16610BD1CB5012808D8487800900B787D
:1012D00015220021064800F0EAFF1CBD0A5CCDE99A
:1012E0000021034639220021014800F003FF1CBD04
:1012F000E4140020014800F08EBD0000E41400203A
:101300002DE9F0479846164689460446DDF820A0A8
:1013100001F0ACFA05464FF47A7707E001F0A6FA3F
:10132000401BB84202D90320BDE8F0872068406F17
:10133000C007F3D046EA891141EA082141EA0A4090
:101340002168C8660020EFE7704770474FF4347299
:1013500040F8212000EB81016FF070428A6000218B
:1013600001614161816108467047F0B5D1E90735F7
:101370004C6A0A68C2B102682B4322F4F842144353
:1013800023430360D1E901231A43D1E90334234302
:101390001A434B6989691A430A4341686FF30E0186
:1013A0000A4342600020F0BDD1E901263243D1E971
:1013B00003673E4332434E69896932430A431A4305
:1013C0002A43016822436FF30E010A430260E9E7F2
:1013D000426943F6FE739A4342EA410141610020AB
:1013E000704770B514460546D1E9000210438A687B
:1013F0006FF01F03C96803EB421242EA4121084320
:1014000029696FF315010843286101F02FFA064698
:1014100009E0601C07D024B101F028FA801BA0422B
:1014200001D9032070BDA8698006F2D4002070BDE8
:10143000F0B56FF00F058C8A2E014FEA054ECB6890
:101440002F034FF07F4C0EEB04540AB31A03A2F59E
:101450008052836822431D4C23401A438260D1E9A5
:10146000002305EB0313521E1A438B6806EB03237C
:101470001A430B8A097E07EB03431A430CEB016105
:101480000A43C16801F070410A43C2600020F0BD08
:10149000D1E9002E05EB0E15521E2A438D6806EB8E
:1014A00005252A430A4D05EB03331A430B8A097EAF
:1014B00007EB03431A4322430CEB01610A438168A3
:1014C00001F070410A438260E0E70000FF0F0FFF68
:1014D00000F0FFFF10B5040002D0607910B106E003
:1014E000012010BD00202071204600F005F80120E9
:1014F0006071002010BD000008B5006806498842F0
:1015000008D10648016841F480510160006800F488
:101510008050009008BD000000300240303802408A
:101520007047000070B590F83820012A24D00126B9
:1015300080F83860022280F8392000EB0112148C08
:10154000D369183243EA04451E4C0A2B16D0092BE6
:1015500014D0137B45EA03630029016813D0CD69D9
:10156000A5431D43CD6103681168196151680A29BB
:101570001BD0092919D01DE0022070BDD36803F0EB
:101580007F432B43E8E74D6AA5431D434D62036843
:101590001168996151680A2901D009290AD1D168D5
:1015A000026821F07F41916204E0D168026821F075
:1015B0007F41116280F83960002180F838100846B8
:1015C00070BD00000F0003FF2DE9F04704460068DE
:1015D00046680568F1074FF004084FF000074FF028
:1015E000010914D0E90512D5016821F48071016068
:1015F000E06B40F00100E0632168C1F8089084F8D6
:10160000398084F83870616909B120468847B0068E
:1016100015D5A80413D52068016821F40051016094
:10162000216820208860E06B40F00200E06384F8CD
:10163000398084F83870616909B1204688473007DD
:1016400015D5280513D52068016821F400610160D3
:10165000216808208860E06B40F00400E06384F8B3
:10166000398084F83870616909B12046884770076D
:101670000CD568050AD52068016821F480610160F5
:101680002168C1F80880204600F05AF8B00713D549
:10169000A80511D52068016821F400710160216856
:1016A00002208860E06BE06384F8399084F8387039
:1016B000216909B120468847F00612D5E80410D503
:1016C0002068016821F48051016021681020886041
:1016D000E06BE06384F8399084F838702046FFF7B7
:1016E0001FFFBDE8F08770B5040004D094F83900FE
:1016F000002510B106E0012070BD84F83850204666
:1017000000F020F8022084F839002068016862683F
:1017100021F44031114301602068416BA26821F03F
:101720000701114341632068016CE2686FF30D010A
:1017300011430164E563012084F83900002070BD85
:101740007047000008B500680B49884212D10B4869
:10175000016841F4000101600068002200F400000B
:10176000009005215A2001F08FFDBDE808405A2065
:1017700001F07DBD08BD000000B0024030380240DD
:101780002DE9F0410446876D01F070F8064694F8A3
:1017900035000025022806D08020606584F834508A
:1017A0000120BDE8F0812068016821F01601016088
:1017B0002068416921F080014161206C08B9A06C6A
:1017C00020B12068016821F00801016020680168EB
:1017D00021F0010101600CE001F048F8801B0528B0
:1017E00007D920206065032084F8350084F8345040
:1017F000D7E720680068C007EED194F85C103F205E
:101800008840B860012084F8350084F83450002006
:10181000C7E770B504002BD094F83500022826D015
:101820002068016821F00101016020680025056041
:1018300020684560206885602068C5602068056173
:101840002168212048612046FFF7F4FCE563256408
:101850006564A564E564256594F85C203F219140AA
:101860008160656584F8355084F83450002070BD7F
:10187000012070BD2DE9F041044600F0F7FF064657
:101880005CB1022084F83500002584F834502068CB
:10189000016821F0010101600DE00120BDE8F08147
:1018A00000F0E4FF801B052805D920206065032097
:1018B00084F83500F2E720680068C007F0D122689C
:1018C000116820480140D4E901031843D4E90336E4
:1018D0003343184363691843A3691843E369184302
:1018E000236A18430843616A042903D1D4E90B131E
:1018F00019430843106020684069666A20F00701B8
:1019000030460E43012704280CD1A06A0643E06A42
:1019100040B12046FFF7A2FC20B14020606584F86A
:101920003570BAE7206846612046FFF783FC94F8DB
:101930005C203F2191408160656584F8357000200E
:10194000ACE700003F8010F030B5027C012A7DD06A
:10195000012202740268536B43F00103536302686F
:10196000D2F8003423F00103C2F800340268D2F840
:10197000003443F00103C2F800340268D36823F056
:101980000303D3600268D3680C682343D360026802
:10199000536923F00703536103685A69CC692243F2
:1019A000D1E905542C4322435A610268136923F09C
:1019B0000F031361026813694C68234313610268C3
:1019C000D2F8003423F00E03C2F800340268D2F8D3
:1019D00000344C6843EA4403C2F800340268536E92
:1019E0006FF30F0353660268536E8C68234353668C
:1019F0000268D2F8003423F0F003C2F80034D1E9D1
:101A000003231A43D1E9084323431A430368D3F855
:101A100000442243C3F800240268936E23F00103BC
:101A200093660268936E896A0B4393660168D1F8E6
:101A3000082442F00102C1F808240168D1F8082402
:101A400042F00202C1F80824002100E002E0017423
:101A5000084630BD022030BD10B5027C012A2FD0CF
:101A6000012202740268936E164C23409366D1E9FA
:101A700000231A43D1E9023423431A430B691A4362
:101A80004B691A438B691A43CB691A430B6A1A4391
:101A90004B6A1A438B6A1A43CB6A1A4303689C6EDB
:101AA00022439A660268936E23F0020393660268EB
:101AB000936E096B0B43936600210174084610BDB9
:101AC000022010BDFF80F0FE30B5027C012A5DD0FF
:101AD0000122027403680022C3F8C4200368C3F81B
:101AE000C8208161CB0706D0036853F8C44F4FF676
:101AF000FF752C431C608B0705D5036853F8C44F52
:101B000044F4F8141C604B0705D5036853F8C84F1C
:101B100044F001041C600B0705D5036853F8C84F57
:101B200044F002041C60CB0605D5036853F8C84F87
:101B300044F00C041C608B0605D5036853F8C84FAD
:101B400044F010041C604B0605D5036853F8C84FD9
:101B500044F020041C600B0605D5036853F8C84FF9
:101B600044F040041C60CB0505D5036853F8C84F0A
:101B700044F080041C60890505D5016851F8C83F10
:101B800043F4F8530B600274002030BD022030BDD6
:101B9000027C012A0ED0012202740268D36A23F06B
:101BA0001F03D3620268D36A0B43D362002101741E
:101BB000084670470220704710B5027C012A6AD09F
:101BC000012202740268936823F47F4393600268E1
:101BD00093680C6843EA042393600268936F9BB296
:101BE00093670268936F8C8843EA044393670268A3
:101BF000936F6FF30F0393670268936F8C682343AF
:101C000093670268D36F6FF30F03D3670268D36FD4
:101C1000CC682343D367026852F8803F6FF30F0309
:101C20001360026852F8803F0C6923431360026816
:101C300052F8843F6FF30F031360026852F8843F39
:101C40004C6923431360026852F8843F23F0807389
:101C50001360026852F8843F8C6923431360026862
:101C600052F8883F6FF30F031360026852F8883F01
:101C7000CC6923431360026852F88C3F6FF30F0363
:101C80001360026852F88C3F096A0B43136000210D
:101C90000174084610BD022010BD30B5027C012A37
:101CA00036D001220274D1E90023934200D91A46AA
:101CB000036853F8984F04F0FC241C60036853F841
:101CC000984F42EA024214431C60026852F89C3F5B
:101CD00003F400431360036853F89C2F0C690D7ADA
:101CE00022438C89240444EA056422431A60026872
:101CF00052F8A43F23F47F431360026852F8A43FD4
:101D0000496943EA0121116000210174084630BD90
:101D1000022030BD2DE9F14FDFF8D8C0364B364FE9
:101D2000DCF804006146401C334A9C3BDFF8C8B035
:101D3000CCF804001D1D314E243FDFF8C4908968A3
:101D4000304C4FF4F17E02F1040AABF1880B4FF0F6
:101D50000108042826DAD4F804C02CF0080CC4F8D2
:101D600004C000EBC00C0CEB001C01EB0C1111606B
:101D7000C821032800D1E821891C4EEA01411960DD
:101D8000214929603E60CAF80090CBF8008002F03B
:101D900077FE606840F0080060600098BDE8F84F8A
:101DA00000F046BA606820F00800606011601648D4
:101DB000401E1860154828603E60CAF80090CBF8B5
:101DC0000080002002F05CFE606840F00800606067
:101DD00000200AF07BF90748002101700C480468D4
:101DE000002C05D02068016A2046884784F87C8052
:101DF000BDE8F88F04000020AC6801400300CA0071
:101E00009301800600700140E301CA00E301CB00AA
:101E1000D4020020704710B504460068D0F80C14B6
:101E2000C90709D0D0F80814C90705D00121C0F8A6
:101E30001014204600F06EFA2068D0F80C148907C0
:101E400009D5D0F80814890705D50221C0F8101467
:101E50002046FFF75FFFA06900284DD0206850F8AA
:101E6000BC2F816811404268C06810400A04120CFF
:101E700003D0626942F00102626111F4F81F03D0DD
:101E8000616941F002016161C10703D0616941F0FC
:101E900004016161810703D5616941F00801616155
:101EA00010F00C0F03D0616941F010016161C106AF
:101EB00003D5616941F020016161810603D5616943
:101EC00041F040016161410603D5616941F0800143
:101ED0006161010603D5616941F48071616110F4AB
:101EE000F85F03D0606940F40070606160690028A9
:101EF00002D02046FFF78EFF10BD00002DE9F84309
:101F00000D46040002D0607C18B105E00120BDE858
:101F1000F883204600F050F90320607420684FF0E9
:101F20000009D0F8301441F08071C0F830142068F6
:101F3000D0F8300400F08070009000F097FC064666
:101F40004FF47A7705E000BF00F090FC801BB842A8
:101F500033D82068D0F80C04C004F5D52068D0F838
:101F60003014624A1140C0F830142068D0F83014A0
:101F70002A682B8941EA82016A68D20242EA034256
:101F80001143C0F830142068D0F8301441F001013A
:101F9000C0F830142068D0F8300400F00100009040
:101FA000012000F0E5F900F061FC0646B84606E0C5
:101FB00000F05CFC801B404501D90320A7E72068A6
:101FC000D0F80C04C005F3D520684E46416841F0B6
:101FD000010141602068416801F0010100918168C0
:101FE00021F0FF01816020688168A268114381604F
:101FF000206850F8A01F41F002010160206850F8ED
:10200000A01F41F004010160206850F8A41F21F0D6
:1020100003010160206850F8A41FE26811430160C9
:1020200000F024FC07462068D0F8A400800715D0F3
:10203000C1464FF094082068D0F8B01038EA01008B
:1020400014D000F013FCC01B4845F4D92674B4E743
:1020500000F00CFCC01B404502D9F7E74FF0140913
:102060002068D0F8B01039EA0100F1D1686800B9F1
:1020700001201F494FF4FA524843297A01F0030125
:10208000884029685143B0FBF1F02168D1F8182449
:1020900022F03F02C1F818242168D1F81824024325
:1020A000C1F818242068C0F8C4602068C0F8C8606F
:1020B000A6612068416821F0010141602068416803
:1020C00001F001010091D0F8941021F00301C0F853
:1020D0009410206850F8941F6268114341F0010188
:1020E0000160666101206074002010E70386FCFF38
:1020F00000093D002DE9FF4F81B00446DDE90EA641
:10210000007C1D469346012809D00120207400F070
:10211000ADFB07464FF000084FF47A790DE002203E
:1021200005B0BDE8F08F00BF00F0A0FBC01B484524
:1021300003D984F810800320F2E72068406FC007BD
:10214000F2D05046032D02D22B46002108E0032393
:1021500000210827725C07EBC107BA401043491CF5
:102160009942F6D321680867EA1A13E0042A01D2DB
:10217000134600E004230021084606E0375C4FEADE
:10218000C00C07FA0CF73943401C9842F6D320687C
:102190000167D21A1E44002AE8D16D1CC5F307203E
:1021A0000090EBB25A4620680299FFF781F884F854
:1021B00010800020B4E7000010B586B0044614215A
:1021C0006846FEF72BFA17492068884227D116483F
:1021D0000021026842F000620260006800F00060C6
:1021E000059011481438026842F4007202600068D9
:1021F00000F400700590042000900220CDE9010158
:102200000D20CDE903106946084800F003FA0022CA
:1022100005215C2001F038F85C2001F028F806B0B8
:1022200010BD0000006C0140443802400024024010
:10223000017C01290CD0012101740168D1F804242A
:1022400042F00402C1F804240021017408467047DA
:1022500002207047027C012A0ED00122027402681B
:10226000136B23F0030313630268136B0B431363B5
:10227000002101740846704702207047027C012A41
:1022800013D0012202740268D2F81C3423F0C06318
:10229000C2F81C340268D2F81C3443EA4161C2F827
:1022A0001C1400210174084670470220704738B59D
:1022B00004460498257C012D08D001252574009042
:1022C0002046FFF71DF80021217438BD022038BDDB
:1022D00008B5017C01291BD001210174016800228D
:1022E0004B6843F001034B6001684B6803F0010346
:1022F0000093D1F8043443F00803C1F804340168B2
:10230000D1F8041401F0080100910274002008BD06
:10231000022008BD70B50646002009F091FE124C5F
:102320000025206810F86A1F491C0170857404F0AC
:1023300055FB20680D4C617880F84A10617809B12E
:10234000217821B1BDE87040002009F0BFBE08B17E
:1023500008F006FD2846656002F092FB3046FFF764
:1023600067FF0120207070BDD4020020040000200F
:1023700070B5044600F07AFA0546601C02D00448A5
:102380000078044400F072FA401BA042FAD370BDFA
:10239000D4000020F0B587B014216846FEF73EF95E
:1023A0003048016800295AD1012101602E480024DB
:1023B000016841F0010101600068022500F00100A0
:1023C00005904FF68370CDE9000502AA03260C277D
:1023D00082E8D0006946254800F01CF948F2331025
:1023E000CDE9000502AA694682E8D000204800F045
:1023F00011F94CF20370CDE9000502AA694682E8A2
:10240000D0001C4800F006F940F2FF60CDE900055D
:1024100002AA694682E8D000174800F0FBF84FF6A0
:102420003F00CDE9000502AA694682E8D0001348C2
:1024300000F0F0F84FF47F40CDE9000502AA6946AC
:1024400082E8D0000E4800F0E5F80D20CDE9000547
:1024500002AA694682E8D0000A4800F0DBF807B01B
:10246000F0BD00005C00002038380240001002403F
:1024700000180240000C02400020024000140240FC
:10248000001C0240000802402DE9F04F0022DFF856
:1024900054B101264FF00F0906FA02F401EA0403D1
:1024A000A3427DD122F003075F44D7F808C89507FF
:1024B0004FEA157809FA08FA0AEA0C05DFF828C18C
:1024C000604502D14FF0000C40E0DFF820C16045CC
:1024D00002D14FF0010C39E0DFF814C1604502D1A0
:1024E0004FF0020C32E0DFF80CC1604502D14FF032
:1024F000030C2BE0DFF800C1604502D14FF0040C63
:1025000024E0DFF8F8C0604502D14FF0050C1DE073
:10251000DFF8ECC0604502D14FF0060C16E0DFF8A2
:10252000E4C0604502D14FF0070C0FE0DFF8D8C0DF
:10253000604502D14FF0080C08E0DFF8D0C06045DC
:1025400002D14FF0090C01E04FF00A0C0CFA08FC24
:10255000AC4522D12E4DD5F800C02CEA030CC5F8AD
:1025600000C005F1040CDCF800509D43CCF800508D
:10257000274D0C35D5F800C02CEA030CC5F800C077
:102580002D1FD5F800C02CEA030CC5F800C0D7F801
:10259000085825EA0A05C7F808580568570000E0FA
:1025A0001AE00323BB409D430560D50800EB850579
:1025B000D5F820C057074FEAD76809FA08F72CEA80
:1025C000070CC5F820C0C5689D43C5604568A54394
:1025D000456084689C438460521C102AFFF45CAF01
:1025E000BDE8F08F003001400000024000040240CE
:1025F00000080240000C024000100240001402409B
:1026000000180240001C024000200240002402404A
:10261000003C01402DE9F84FDFF8F8A10022012429
:1026200003254FF00F090AF1040BAAF1040E00BFB5
:102630000B6804FA02F63340B34270D10F7907F009
:102640000307012F01D0022F16D187684FEA4208F5
:1026500005FA08FC27EA0C07D1F80CC00CFA08FCB4
:102660004CEA070CC0F808C04768B7430E79C6F3B8
:10267000001696403E4346600E79F643B6070AD0F0
:10268000C7684FEA420C05FA0CF6B7438E6806FAA3
:102690000CF63E43C6600E7906F00306022E10D1FA
:1026A000D60800EB8608D8F8206057074FEAD76CA9
:1026B00009FA0CF7BE430F6907FA0CF73743C8F85D
:1026C000207006684FEA420C05FA0CF7BE430F79FA
:1026D00007F0030707FA0CF7374307604E6816F454
:1026E000403F1CD04C4E376847F48047376036680F
:1026F00022F0030706F480460096484E07EB060CCE
:10270000DCF8086897073F0F09FA07F826EA080679
:10271000DFF80C81404503D14FF0000841E072E042
:10272000DFF80081404502D14FF0010839E0DFF8C1
:10273000F880404502D14FF0020832E0DFF8EC802B
:10274000404502D14FF003082BE0DFF8E48040451C
:1027500002D14FF0040824E0DFF8D880404502D1D0
:102760004FF005081DE0DFF8D080404502D14FF062
:10277000060816E0DFF8C480404502D14FF0070894
:102780000FE0DFF8BC80404502D14FF0080808E0B8
:10279000DFF8B080404502D14FF0090801E04FF06A
:1027A0000A0808FA07F848EA0608CCF80888DAF8B0
:1027B00000605746D1F804C09E435FEACC2C00D598
:1027C0001E433E60DBF800605F46D1F804C09E43C4
:1027D0005FEA8C2C00D51E433E60DEF80060774631
:1027E000D1F804C09E435FEA8C3C00D51E433E6096
:1027F000084F083F3E68D1F804C09E435FEACC3CD6
:1028000000D51E433E60521C102AFFF411AFBDE8F4
:10281000F88F0000083C014044380240003001407D
:10282000000002400004024000080240000C024088
:10283000001002400014024000180240001C024038
:1028400000200240002402400069084000D001201E
:102850007047426921EA02030A4043EA024181616A
:1028600070470AB1816170470904FBE7014880683D
:1028700070470000D400002010B5040013D02420BD
:1028800084F83D002068016821F0010101602046C4
:1028900000F06CFA0020206484F83D0044F8300F0A
:1028A000A073207310BD012010BD90F83D0070474B
:1028B00070B5040025D094F83D00002520B984F8B7
:1028C0003C50204600F06EFA242084F83D00206839
:1028D000016821F0010101602068016841F40041B4
:1028E00001602068016821F40041016001F02AFACA
:1028F0004D4A6168914201D84C4900E04C498842F8
:1029000001D2012070BD4B492368B0FBF1F15E6834
:1029100026F03F060E435E606368934206D94FF48B
:10292000967359434FF47A73B1FBF3F12368491C52
:102930001E6A26F03F06314319626168914210D841
:102940004900401EB0FBF1F2521CC2F30B02042AF4
:1029500001D2042022E0B0FBF1F0401CC0F30B00D8
:102960001CE0A268F2B301EBC10303EB0116431EA6
:10297000B3FBF6F35B1C43F480431B0549D092B3D1
:1029800001EBC10202EB0111401EB0FBF1F0401C53
:10299000C0F30B0040F4804040F400402168CA6955
:1029A0004CF6FF739A431043C861D4E90710014302
:1029B0002068026822F0C00211430160D4E90301DB
:1029C00001432068826848F2FF339A4311438160D3
:1029D000D4E9050108432168CA6822F0FF021043C8
:1029E000C86001E00EE016E02068016841F00101D6
:1029F00001602564202084F83D00256384F83E5062
:102A0000002070BD01EB4106431EB3FBF6F35B1CD7
:102A1000B3E70120C2E701EB4101401EB0FBF1F03A
:102A2000401CC0F30B00B7E7A086010080841E00A5
:102A300000093D0040420F002DE9FF4F83B09A4648
:102A4000DDE9118793460446DDF84090FFF70EFF5D
:102A5000054694F83D00202870D1192301227449BD
:102A60002046009501F0DAFE0028F5D194F83C00EC
:102A7000012863D0012084F83C0020680168C90760
:102A800003D1016841F0010101602068016821F46F
:102A900000610160222084F83D00402084F83E005F
:102AA00000262664C4F82490A4F82A80608D20852E
:102AB0006048E062CDE9007553465A4620460499C5
:102AC00001F0AEFD002879D1208DD0B1012821D0B0
:102AD0000228206824D0416980690090208D032855
:102AE00066D801282BD0544902283B464FF00002FB
:102AF000009557D08846204601F090FE00285DD111
:102B00003AE02068416981690091016841F40071EF
:102B100001607DE02068016821F480610160F0E7D8
:102B2000016821F4806101602068016841F400615E
:102B30000160206841698069009069E075E02A467B
:102B40003946204601F010FF88BB54E02068016838
:102B500041F40071016020680069616A0870606A70
:102B6000401C6062218D491E2185618D491E618551
:102B700021680969017042E02068016821F48061E0
:102B8000016020680069616A0870606A401C6062C8
:102B9000208D401E2085608D401E60853B460022B2
:102BA00041460095204601F039FE00B9CEE705E028
:102BB0002A463946204601F0D7FE18B1012007B059
:102BC000BDE8F08F20680069616A0870606A401C87
:102BD0006062208D401E81B22185608D401E60851F
:102BE00020684269D243520712D4032903D10168F5
:102BF00021F48061016020680069616A0870606A80
:102C0000401C6062208D401E2085608D401E6085C6
:102C1000208D00287FF462AF202084F83D0084F8E6
:102C20003E6084F83C600020C9E70220C7E700004E
:102C3000020010000000FFFF040001002DE9FF4F1B
:102C400083B09A46DDE9119793460446DDF840804B
:102C5000FFF70CFE054694F83D0020287FD119238C
:102C6000012240492046009501F0D8FD002876D188
:102C700094F83C00012872D0012084F83C002068C0
:102C80000168C90703D1016841F0010101602068B2
:102C9000016821F400610160212084F83D0040209A
:102CA00084F83E0000262664C4F82480A4F82A9004
:102CB000608D20852C48E062CDE9007553465A4668
:102CC0002046049901F02AFD70B930E02A463946C1
:102CD000204601F081FE58B1206C042804D1206800
:102CE000016841F400710160012007B0BDE8F08F78
:102CF000606A216800780861606A401C6062218D0A
:102D0000491E89B22185628D521E628522685369EF
:102D1000DB435B070BD469B100781061606A401C2B
:102D20006062208D401E2085608D401E6085208D54
:102D30000028CBD12A463946204601F043FD002821
:102D4000CAD154F83D0B016841F4007101602020A4
:102D500004F81E09E67766770020C6E7FFE7022041
:102D6000C3E70000020010000000FFFF10B500687C
:102D7000094988420FD10948016821F40011016016
:102D8000074C81152046FFF77FFB61152046BDE803
:102D90001040FFF779BB10BD00540040403802409E
:102DA0000004024010B586B0044614216846FDF7C1
:102DB00035FC1A49206888422ED11948016841F033
:102DC000020101600068694600F0020005904FF4BE
:102DD0004070009012200190012002900320039087
:102DE000042004900F48FFF715FC0D4810300168CF
:102DF00041F400110160006800F4001005900848DB
:102E00001038016841F400110160016821F40011DB
:102E100001606420FFF7ACFA06B010BD005400401A
:102E200030380240000402400248816802781144B0
:102E300081607047D40000200B4810B5016841F450
:102E400000710160016841F480610160016841F432
:102E500080710160032000F037FA002000F006F8CE
:102E600000F0D8F9002010BD003C024030B5054606
:102E70001F4887B00024016841F01001016000681C
:102E800006A900F01000009001A800F03BFF049894
:102E9000A8B100F057FF40001649174AB0FBF1F106
:102EA0001648491E026040F2E732C0E90324C0E937
:102EB0000114846101F0F4F9040003D015E000F07E
:102EC00041FFE9E70D4801F019FA04000DD1362061
:102ED00000F0CDF9102D07D200222946362000F04F
:102EE000D3F90748056000E0012407B0204630BD53
:102EF0004038024040420F00001000407C16002085
:102F0000D80000202DE9F041044690F8A0001646B4
:102F10000F4601281DD0012584F8A050022084F816
:102F2000A10006EB860000EBC60004EB8000342213
:102F30003830FDF739FB32463946204601F0B8FDFE
:102F40002068456284F8A150002084F8A000BDE804
:102F5000F0810220FBE770472DE9F041044600684C
:102F6000856B466B69074FF004084FF0000715D5D5
:102F7000710713D5416B21F0040141632168C1F849
:102F80003C80D4F8A41041F00101C4F8A41084F8E6
:102F9000A18084F8A0702046FFF7DDFFA80716D5B2
:102FA000B00714D52068416B21F00201416321680C
:102FB0000220C863D4F8A40040F00200C4F8A400C2
:102FC00084F8A18084F8A0702046FFF7C4FF05EACA
:102FD0000600C0074FF001080ED02068416B21F0B9
:102FE000010141632168C1F83C8084F8A18084F824
:102FF000A070204600F090F8280710D530070ED5B5
:103000002068416B21F00801416321680820C863F2
:1030100084F8A18084F8A070204600F0B1F8BDE8E3
:10302000F081000070B5040004D094F8A1000025E0
:1030300010B106E0012070BD84F8A050204600F0D9
:103040006DF8022084F8A1002068816921F07041A8
:103050008161D4E901010843D4E903121143084313
:1030600021688A691043886121688A68294802407A
:103070008A60A18A0A0421688B68A66933431343D6
:103080008B602168CA680240CA60A18B0B0421686A
:10309000CA68266A32431A43CA6021680A69024034
:1030A0000A61A18C22680B041169A66A3143194395
:1030B000116121684A6902404A61A08D01042068BB
:1030C0004269236B1A430A43426194F83500216830
:1030D000020294F83600CB6A03F07F43CB6221688A
:1030E000CB6A94F8346042EA004033430343CB6236
:1030F0002068416B41F0060141632068816941F01D
:1031000001018161C4F8A450012084F8A1000020CD
:1031100070BD000000F800F07047000010B590B0DE
:1031200004463C216846FDF779FA13492068884235
:103130001FD1082000904FF4B4700490062007902F
:1031400000200A90684600F0CFFB08B1FEF7FDF8BA
:103150000A48016841F0806101600068002200F0C7
:1031600080600F900521582000F08EF8582000F064
:103170007EF810B010BD00000068014044380240E5
:103180007047000070B590F8A030012B36D00124B4
:1031900080F8A040022380F8A13002EB820303EB09
:1031A000C20300EB83039B6C53B3012B2AD0042B87
:1031B0002AD0022B28D0032B26D0072B24D0012382
:1031C00059430B04B021056801EBC2116A580F4E38
:1031D00032406A500E4A156845F0010515600568D1
:1031E0006E581E436E50116841F00101116080F865
:1031F000A140002180F8A010084670BD022070BDDB
:103200000423DDE70323DBE70223D9E7FFFF00E028
:10321000246801400C4882B0016841F4804101609B
:10322000006800F4804000900748001F016841F0EA
:10323000805101600068002200F0805000900F2152
:10324000901E02B000F020B84438024000280DDB88
:1032500000F01F02012191404009800000F1E020B0
:10326000C0F88011BFF34F8FBFF36F8F70470028F6
:1032700009DB00F01F02012191404009800000F1AC
:10328000E020C0F800117047F0B40E4B1B680C46EC
:10329000C3F30223C3F10705042D00D90425191D2A
:1032A000072901D2002300E0DB1E012606FA05F102
:1032B000491E214099409E40761E16403143F0BC85
:1032C00013F065BB0CED00E0064900F0070208684A
:1032D0004FF6FF03184040EA0220034A10430860FB
:1032E000704700000CED00E00000FA052DE9F843FE
:1032F0001748016841F0805101600068154F00F0E7
:103300008050012600903E64FFF7B0FA05464FF466
:103310007A78114C05E000BFFFF7A8FA401B404542
:103320000DD86068C003F7D57E64FFF79FFA0546A5
:10333000464607E0FFF79AFA401BB04202D9032045
:10334000BDE8F88360688003F4D50020F8E700004A
:103350004038024000000E4200700040F8B50446BC
:103360000025FFF783FA064694F8410080073BD515
:10337000002084F840002068016849070CD50168E6
:1033800021F004010160E06BFEF7FAF9050003D0BB
:10339000606C40F004006064206881684FF00107B1
:1033A00089061FD5016841F002010160A06C009000
:1033B000334601220221204602F051F9050013D1C3
:1033C00021680220C860A06C0090334600222021B2
:1033D000204602F044F9050006D12068416921F039
:1033E0004061416184F841702846F8BD2DE9F84FED
:1033F0001E4615468A460446FFF738FA814694F879
:10340000400001280ED0012784F8407094F8410054
:103410004FF00008012807D05FF0020084F84080D8
:10342000BDE8F88F0220FBE7C4F84480422084F80E
:1034300041004B46002220212046009602F00FF961
:103440000028EBD121682868886221686868486292
:103450002168A868C86220682969026822F44002CD
:1034600042F4800211430160E968CAF828104FF065
:1034700000625146204601F0CFFF4B460122082151
:103480002046009602F0EBF80028C7D122680821F8
:10349000D16084F84170C1E72DE9F84F17468B469B
:1034A0000446FFF7E3F9824694F8400001280ED065
:1034B000012684F8406094F841004FF0000801288C
:1034C00007D0022584F840802846BDE8F88F022006
:1034D000FBE7C4F844804FF0020984F8419053465A
:1034E000002220212046009702F0B9F80500E9D11A
:1034F00000225946204601F08FFFDBF8240058B91E
:103500005346012202212046009702F0A8F8050048
:10351000D8D12168C1F80C9084F84160D2E710B589
:1035200004000ED02068016821F0010101602046EE
:1035300000F0A4F80020606484F8410084F84000A2
:1035400010BD012010BD0000F8B50446FFF78EF94C
:10355000064624B194F84100002510B109E001208D
:10356000F8BD84F84050204600F0A6F841F28830BB
:10357000A06420680168A2686FF0FF0321F4F8518D
:1035800003EB022211430160A06C0090334600223D
:103590002021204602F063F810BBE269E16823793C
:1035A0001143226A42EA03621143226813680E4EF5
:1035B000334019431160D4E905121143226853685E
:1035C0000A4E3340268A43EA064319435160216874
:1035D0000A6842F001020A606564012184F8411022
:1035E00084F84050F8BD00002FFFFF00FEF8E0FF18
:1035F0002DE9F843164688460446FFF737F9034697
:1036000094F8400001280ED0012084F8400094F87E
:1036100041000027012808D05FF0020584F84070BF
:103620002846BDE8F8830220FBE76764822084F81F
:103630004100A06C009000222021204602F00FF8EB
:103640000500EBD120680168726821F00801114380
:103650000160706808280AD1216830680863216811
:103660001020C8602068016841F4801101604FF0AB
:1036700040624146204601F0CFFECFE710B500681A
:10368000094988420FD10948016821F0020101600F
:1036900040210748FEF7F8FEBDE810404FF4F861FE
:1036A0000448FEF7F1BE10BD001000A038380240FB
:1036B00000040240001402402DE9F04186B00446A7
:1036C00014216846FCF7AAFF23492068884240D1AC
:1036D00022480024016841F002010160006800F006
:1036E000020005901D480838016841F002010160A0
:1036F000016801F002010591016841F020010160BB
:103700000068022500F0200005904020CDE900056A
:1037100002AA03260A2782E8D00069461048FEF76D
:1037200079FF4FF49860CDE9000502940920CDE9B6
:103730000360DFF8308069464046FEF76BFF3002D9
:10374000CDE9000502AA694682E8D0004046FEF7AE
:1037500061FF06B0BDE8F081001000A038380240DB
:1037600000040240001402402DE9F84F15460F46B0
:103770000446FFF77BF882462068816994F8402070
:1037800000F12009012A0DD0012684F8406094F848
:1037900041204FF00008012A06D0022084F8408022
:1037A000BDE8F88F0220FBE7C4F84480BFB32222B3
:1037B00084F841200269521CA2630269521C6263B0
:1037C0002763426922F0406242F0806242612068D1
:1037D00081610EE00621204601F041FFE0B999F831
:1037E0000000216B0870206B401C2063A06B401E02
:1037F000A063A06B53464FF0010200950028E9D169
:103800004FF00201204601F02AFF28B9216802206A
:10381000C8602046FFF7A2FD84F84160BEE7FFE7DD
:10382000606C40F0080060640120B7E72DE9F84FB4
:1038300015460F460446FFF719F88246206894F8AB
:10384000401000F1200901290ED0012684F84060C3
:1038500094F841104FF00008012907D05FF00200F2
:1038600084F84080BDE8F88F0220FBE7C4F844806C
:103870009FB3122184F841100169491CE16201697A
:10388000491CA1626762416921F0406141610EE01B
:103890000421204601F0E3FEE0B9606A017889F86E
:1038A0000010606A401C6062E06A401EE062E06AEC
:1038B00053464FF0010200950028E9D14FF0020174
:1038C000204601F0CCFE28B921680220C8602046BD
:1038D000FFF744FD84F84160C2E7FFE7606C40F009
:1038E000080060640120BBE72DE9F84F044600782A
:1038F000AD4D000605D52868616B20F000600843D7
:1039000028602088C00505D52868A16B20F080506C
:10391000084328602068DFF894A2A54FC1074FF044
:1039200001084FF0000603D1810701D4400648D5B5
:10393000CAF86860FEF79AFF814605E0FEF796FF39
:10394000A0EB090002287DD838680001F6D4207861
:10395000C107984805D06168227A890141EA02715D
:1039600001602178890711D501686268237B920183
:10397000C1F3027142EA036242EA017101602968FF
:10398000226A21F01F01521E114329602178490645
:1039900008D56168227B890141EA0261227A41EA05
:1039A00002710160CAF86880FEF760FF814605E099
:1039B000FEF75CFFA0EB09000228C4D838680001BC
:1039C000F6D520684FF0006B410706D4010704D4F8
:1039D000000676D5606B58457DD1CAF87060FEF759
:1039E00045FF814606E000BFFEF740FFA0EB09005F
:1039F000022827D83868C0438000F5D520786F4961
:103A000042076D4821D502680368C2F30142521C87
:103A100022F00042D4F810C001EB024242EA8C12BC
:103A200094F818C0C3F3027342EA0C6242EA0372CC
:103A300002602A68636A6FF0FF0C22F4F8520CEB04
:103A4000032300E087E01A432A60227812071AD580
:103A50000268C2F30142521C530002685B08D4F8AA
:103A600010C001EB0343C2F3036243EA8C1343EA41
:103A70000262237F42EA037202602A68A36A22F488
:103A800040321A432A602278120614D5626B5A45D6
:103A900011D102680368C2F303626569C3F302735C
:103AA0006D0801EB0541256941EA851141EA026192
:103AB00041EA03710160CAF87080FEF7D7FE05463F
:103AC00005E008E0FEF7D2FE401B022843D8386824
:103AD000C0438000F6D42078800653D53448403067
:103AE000016841F0805101600068354D00F0805060
:103AF0000090286840F480702860FEF7B7FE074603
:103B000005E000BFFEF7B2FEC01B022823D82868DC
:103B1000C005F7D5274D143D286810F4407020D01B
:103B2000A18D01F4407181421BD02868254920F401
:103B30004070C1F800800E6028602868C00710D06F
:103B4000FEF794FE064641F2883707E0FEF78EFE48
:103B5000801BB84202D90320BDE8F88F286880078F
:103B6000F4D5E16A1248C1F301220830032A13D0C8
:103B7000016821F4F81101602868A18DC1F30B01DF
:103B8000084328602078C00604D50F4994F8300017
:103B9000C1F8E0010020DFE702680C4B22F4F812C4
:103BA00019400A430260E7E78C38024000004742B0
:103BB0000038024084380240883802400000FFFF8D
:103BC00000700040400E474200104742FFFCFF0FCC
:103BD0002DE9F0470E46050065D0DFF81481D8F8CE
:103BE0000000F7B200F00F00B04207D288F8007072
:103BF000D8F8000000F00F00B04254D128683D4CC6
:103C0000810712D5400703D5206840F4E0502060BA
:103C10002878000703D5206840F4604020602068C1
:103C2000A96820F0F000084320602878C0072DD054
:103C3000304968680839012812D0022813D00328B7
:103C400011D00968890700292DDA216821F00301C4
:103C500001432160FEF70AFE814641F2883A0EE0F8
:103C600009688903EFE709688901ECE7FEF7FEFDC3
:103C7000A0EB0901514502D90320BDE8F087206877
:103C8000696800F00C00B0EB810FEFD1D8F800109C
:103C9000404601F00F01B14207D90770006800F0FB
:103CA0000F00B04201D00120E7E72878400705D592
:103CB0002068E96820F4E050084320602878000775
:103CC00006D52068296920F4604040EAC1002060E0
:103CD00000F048F82168084AC1F30311515CC8405C
:103CE0000649086006480068FFF7C0F80020C4E7EE
:103CF000003C024008380240CC960108E000002059
:103D0000D80000200F2202600C4A136803F003035E
:103D10004360136803F0F0038360136803F4E05317
:103D2000C36012684FF4E05303EAD2020261044810
:103D3000006800F00F00086070470000083802407B
:103D4000003C02400448054900680968044AC1F380
:103D50008221515CC8407047E000002008380240D2
:103D6000DC960108154810B5006810F00C021448E4
:103D700013D04110042A0FD0082A0ED10F4C241F53
:103D80002268236802F03F025B0207D52068C0F377
:103D90008810A0FB010106E0084610BD2168C1F3B0
:103DA0008811A1FB00010023FCF7FCFA2168C1F394
:103DB0000141491C4900B0FBF1F010BD0838024038
:103DC0000024F4002DE9F84F04006ED02078DFF8CD
:103DD0006093C007A9F104054AD009F10400016805
:103DE000C1F38101012908D00068C0F381000228D5
:103DF0000AD1D9F80000400206D52868800337D5DB
:103E000060680028E1D033E06068B0F5803F10D0F2
:103E1000B0F5A02F286810D020F4803028602868E2
:103E200020F4802028606068A8B1FEF71FFD0646D8
:103E30000DE0286840F48030F4E740F480202860EA
:103E4000F7E700BFFEF712FD801B642873D82868CF
:103E50008003F7D50CE0FEF709FD064605E000BF3C
:103E6000FEF704FD801B6428F0D828688003F7D48F
:103E70002078DFF8C08280074FF0000A3ED5AC48BA
:103E8000001D016811F00C0F08D00068C0F381001C
:103E900002280BD1D9F80000400207D42868800717
:103EA00016D5E068012800D112E03CE1E068B8B125
:103EB0000120C8F80000FEF7D9FC064605E000BF67
:103EC000FEF7D4FC801B0228C0D828688007F7D5ED
:103ED0002868216920F0F80040EAC10028600DE060
:103EE000C8F800A0FEF7C2FC064604E0FEF7BEFCE0
:103EF000801B02281FD828688007F7D42078000785
:103F000022D58B4E8C486169703671B101210160F8
:103F1000FEF7ACFC074604E0FEF7A8FCC01B022835
:103F200009D830688007F7D50EE0C0F800A0FEF78A
:103F30009DFC074605E082E0FEF798FCC01B0228C6
:103F40007DD830688007F7D42078400768D5DFF83F
:103F5000E0B100270BF13C0BDBF80000C0000BD4F4
:103F6000DBF8001041F08051CBF80010DBF80000C6
:103F7000012700F080500090704E3068C00510D4CA
:103F8000306840F480703060FEF770FC009005E00F
:103F9000FEF76CFC0099401A022850D83068C00522
:103FA000F6D5634EA0686C3601280FD0052830681E
:103FB00010D020F001003060306820F00400306044
:103FC000A068B8B1FEF752FC00900FE0306840F0F6
:103FD0000100F4E740F004003060F7E7FEF746FC2C
:103FE0000099411A41F28830814268D830688007D0
:103FF000F4D50EE0FEF73AFC009007E0FEF736FC41
:104000000099411A41F28830814258D830688007BF
:10401000F4D42FB1DBF8001021F08051CBF8001060
:10402000A069D8B34249091D0968C1F38101022979
:104030004CD00228504607D0C8F8600000E03EE0AF
:10404000FEF714FC04463DE04746C8F86000FEF762
:104050000DFC064605E000BFFEF708FC801B0228A9
:104060002DD828688001F7D4F4E907010843E168F6
:10407000334A490802EB0141A26841EA8211084330
:10408000217C40EA0160217D40EA0171C9F80010FD
:1040900001203866FEF7EAFB044606E045E000BF73
:1040A000FEF7E4FB001B022809D828688001F7D539
:1040B0003BE000BFFEF7DAFB001B022802D9032019
:1040C000BDE8F88F28688001F4D42EE00128F7D0ED
:1040D000D9F80000E26900F48001914223D1226AFC
:1040E00000F03F0191421ED147F6C071626A014063
:1040F000B1EB821F17D1A26A4FF0FF3300F44031B9
:1041000003EB5202B1EB024F0DD194F82C2000F0DA
:104110007061B1EB026F06D194F8301000F0E0400E
:10412000B0EB017F01D00120CAE70020C8E7000002
:104130000438024000004742800E474200700040B1
:104140000000FFFF10B5044600F02CF8D4E9000190
:10415000FDF7FCF8002084F82C0084F82D0010BD39
:1041600070B50D46040003D094F82C0010B107E0A0
:10417000012070BD002084F82D00204600F056F884
:10418000022084F82C00211D2068FDF7EEF8D4E908
:1041900000022946FDF74CF9012084F82C0000208C
:1041A00070BD0000184810B5416800292AD10121CE
:1041B00041601648016821F0010101604FF68371EA
:1041C0001348FEF761F948F233111248FEF75CF923
:1041D0004CF203711048FEF757F940F2FF610F48A7
:1041E000FEF752F94FF63F010D48FEF74DF94FF437
:1041F0007F410C48FEF748F9BDE810400D210A4800
:10420000FEF742B910BD00005C00002038380240C3
:104210000010024000180240000C02400020024042
:1042200000140240001C024000080240FEF7B2B831
:1042300010B5044690F82C00022804D094F82C0005
:10424000012801D0012010BD022084F82C00206834
:10425000FDF7BEF8012084F82C00002010BD0000FE
:1042600070B5044690F82C000D46022804D00128B1
:1042700003D0052801D0012070BD022084F82C0055
:104280002068FDF7AEF82868022805D05FF001002D
:1042900084F82C00002070BD0520F9E770477047B6
:1042A00010B5040003D094F83D0010B107E00120E0
:1042B00010BD002084F83C00204600F01EF80220CB
:1042C00084F83D00211D206801F08CFA012084F85B
:1042D000460084F83E0084F83F0084F8400084F8EB
:1042E000410084F8420084F8430084F8440084F8D4
:1042F000450084F83D00002010BD704790F83D1047
:10430000012901D001207047022180F83D10016889
:10431000CA6842F00102CA6000681149884214D09C
:10432000B0F1804F11D00F4988420ED00E4988421B
:104330000BD00E49884208D00D49884205D00D495E
:10434000884202D00C49884204D1816801F00701FB
:10435000062903D0016841F0010101600020704787
:10436000000001400004004000080040000C004034
:1043700000040140004001400018004070472DE952
:10438000F04104460068C66805694FF00007A907B8
:1043900013D5B10711D5F91E0161012020772068DE
:1043A00080698007204602D0FFF7E8FF04E000F0B4
:1043B0007EF8204600F07CF82777680716D570074E
:1043C00014D521686FF0040008610220207720686E
:1043D000806910F4407F204602D0FFF7CFFF04E051
:1043E00000F065F8204600F063F82777280715D518
:1043F000300713D521686FF008000861042020778A
:104400002068C0698007204602D0FFF7B7FF04E0AC
:1044100000F04DF8204600F04BF82777E80616D557
:10442000F00614D521686FF010000861082020778D
:104430002068C06910F4407F204602D0FFF79EFF3D
:1044400004E000F034F8204600F032F82777E8075F
:1044500008D0F00706D021686FF0010008612046FF
:1044600000F028F8280608D5300606D521686FF038
:10447000800008612046FFF711FF680608D5700626
:1044800006D521686FF040000861204600F01CF856
:10449000A8060AD5B00608D521686FF0200008618B
:1044A0002046BDE8F041FFF7FABEBDE8F081704755
:1044B0007047000000680349884201D1FEF7B4BC90
:1044C00070470000001000407047FEE710B5034839
:1044D000FEF7D2F9BDE8104000F002B8C416002083
:1044E00010B50E48FEF7E1F9002815D10B480C492C
:1044F0004FF4804201600B49416000218160C0E9B6
:10450000031241618161C161016200F00DF8BDE8F3
:1045100010400248FEF7CCB910BD0000C4160020C0
:1045200000540040801A0600234810B5026886B087
:10453000002142F0020202600068204C00F00200FC
:1045400005904FF4807000901220CDE90101022007
:1045500003900420049069462046FEF75BF860153E
:10456000009069462046FEF755F813481030016860
:1045700041F400110160006800F4001005900E483D
:104580001038016841F400110160016821F4001144
:104590000160002205211F20FEF776FE1F20FEF796
:1045A00066FE002205212020FEF76EFE2020FEF789
:1045B0005EFE06B010BD000030380240000402402C
:1045C0003EB5054606984FF47A74CDE9003013469F
:1045D0000A46029429460548FEF72EFA040002D046
:1045E0002846FFF773FF20463EBD0000C41600209A
:1045F00001684A69D24352050FD46FF480624A6160
:10460000002140F8301F202242738173026942F07A
:10461000040202610173012070470020704700000E
:104620002DE9F84F0446006889460B9D01689846BD
:10463000174641F4806101602068016841F480718F
:10464000016000954FF0011B0022594620460A9B4D
:1046500000F0E4F84FF4007A40B120680068C0052B
:1046600001D5C4F840A00320BDE8F88F216809F007
:10467000FE0008612B46284920460A9A00F016F9E8
:10468000F0BB20684169806900902A4620460A995B
:1046900000F0A2F940B1206C04283AD120680168EA
:1046A00041F40071016034E0FEB2B8F1010F09D0AD
:1046B0002168380A08612A4620460A9900F08CF9D8
:1046C0000028E8D1206806612A4620460A9900F0B1
:1046D00083F90028DFD12068016841F4807101600E
:1046E00000950022594620460A9B00F097F80028C2
:1046F000B3D1216809F0FF0040F00100086100E03B
:1047000007E02B46044920460A9A00F0CFF800281B
:10471000AAD00120A8E70000020001002DE9F8431B
:10472000044600680D46DDE908970168984616467C
:1047300041F4807101604B4600224FF00111204688
:10474000009700F06BF848B120680068C00502D5FA
:104750004FF4007020640320BDE8F883216805F061
:10476000FE0008613B464A461549204600F09EF887
:1047700088B920684169806900903A4649462046D8
:1047800000F02AF948B1206C042804D1206801689F
:1047900041F4007101600120DEE7F5B2B8F1010FCC
:1047A00009D02168300A08613A464946204600F09F
:1047B00013F90028E7D1206805610020CCE700004C
:1047C0000200010070B516460D4604461EE0204664
:1047D000FFF70EFF08B1012070BD681C16D0FEF770
:1047E00045F8801BA84200D885B920684069C043BD
:1047F00040070BD5002044F8300F20216173A073CF
:10480000216941F0200121612073E4E720684069BB
:10481000C0434007DBD4002070BD00002DE9F04705
:10482000984617460D460446C1F30746DDF820902A
:104830002AE000BFB8F1FF3F26D0FEF717F8A0EB43
:104840000901414502D8B8F1000F1DD12068012EA1
:1048500016D0806925EA00000004000C12D0002068
:10486000B84211D1002044F8300F20216173A073A9
:10487000216941F02001216120730120BDE8F0870A
:104880004069E7E70120EBE72068012E0AD0806944
:1048900025EA00000004000C06D00020B842C9D070
:1048A0000020EBE74069F3E70120F7E72DE9F04747
:1048B000984616460D4604464FF000094FF0200A70
:1048C000C1F3074723E020684069C043400515D481
:1048D0002068016841F40071016021686FF4806014
:1048E0004861C4F8309084F83DA084F83E90216C73
:1048F00041F00401216484F83C9021E0701C06D052
:10490000FDF7B4FFA0EB0800B04203D816B1012FA9
:104910001FD021E02068012F15D0806925EA000012
:104920000004000C18D000BF44F8309F84F80DA09C
:1049300084F80E90216941F02001216184F80C90E7
:104940000120BDE8F087406925EA00000004000C62
:10495000EAD12068406901E02068806925EA00000A
:104960000004000CAFD1ECE72DE9F04100259046A2
:104970000E460446202728E04069C043C0060CD4F8
:1049800054F8301B6FF01000486144F810596777F5
:10499000A577206A2062257714E0FDF767FFA0EB7A
:1049A0000800B04200D886B920684069C04340067C
:1049B0000BD544F8305F6773A573206940F0200081
:1049C000206125730120BDE8F08120684169C94359
:1049D0004906D1D40020F6E770B516460D460446C8
:1049E0001EE02046FFF704FE08B1012070BD681CE0
:1049F00016D0FDF73BFF801BA84200D885B9206880
:104A00004069C04300060BD5002044F8300F202138
:104A10006173A073216941F0200121612073E4E7F3
:104A200020684069C0430006DBD4002070BD000050
:104A30000100044810B5006800D0012106F0A9F873
:104A4000012010BDD40200201CB50B480221022316
:104A50000170152141704421CDE900103922002157
:104A60000648FDF747FB002001460090352315223C
:104A70000248FDF71CFC1CBD06000020E4140020C9
:104A80001CB50649042301EB80002A21CDE9001062
:104A9000392200210248FDF72DFB1CBD1C0000201F
:104AA000E41400200148FEF757BA00005415002016
:104AB000F0B503688C88DD68C5F30B452C442504EC
:104AC000882404EBC2141E5906F470461E51036874
:104AD0000F68DE68C6F30B46761C3E442E431E511B
:104AE00004688B89E568C5F30A052B441D048C23F3
:104AF00003EBC213E65806F47046E65004688F686C
:104B0000E668C6F30A06761C3E442E43E65094231C
:104B1000046803EBC213E55825F00705E550056866
:104B20000C69EC5091F831300C7E1F0226069C2453
:104B3000056804EBC21491F8323055F804C04FF008
:104B4000000C45F804C091F8305046EA03433D4359
:104B50001D4303681D519823046803EBC213E558F5
:104B600025F0FF05E55005684C69EC50A02304686A
:104B700003EBC213E55840F20776B543E550D1E99F
:104B800007452C430568EC50AC23046803EBC213C3
:104B9000E55844F803C005684C6AEC500B698BB3C8
:104BA000012B32D0042B32D0022B30D0032B2ED04D
:104BB000072B2CD00123B024056804EBC2142E5916
:104BC00006F0E0262E51D1E90065AD1B0E8D5D4348
:104BD0005E43ED1C45EA064305682B51B423046887
:104BE00003EBC213E5586FF30A05E5500468C96A80
:104BF000E1500068842101EBC211425842F00102E9
:104C00004250F0BDFFE70423D5E70323D3E7022397
:104C1000D1E7000070B5484CAAB0002280212046A0
:104C2000FDF71FFE1420FDF7A3FB01228021204683
:104C3000FDF717FE0A20FDF79BFB0024242118A88E
:104C40002994FBF7EBFC182121A8FBF7E7FC3421A2
:104C50006846FBF7E3FC2C210DA8FBF7DFFC384886
:104C600036490125C0E900140421C0E902157D2060
:104C70000226CDE9270627A93148FDF73FF9CDE9FE
:104C800018541A941B941C941D941E941F9418A9D4
:104C90002B482094FCF790FF1C202190212022908B
:104CA0000F2023901920CDE9240421A9244826941B
:104CB000FCF7F3FF04212248FCF76AFF42F210716F
:104CC0001F48FDF7DBFA00211D48FCF7FDFE280216
:104CD000009040000190400002904000039040008E
:104CE000049040000590400006908000079040002E
:104CF00008904000099040000A904001CDE90B0661
:104D000069460F48FCF7A8FEC820CDE90E401020E8
:104D1000CDE910048020CDE914400D941294139431
:104D20000DA90748CDE91645FCF70EFE0021044801
:104D3000FDF790FA2AB070BD001C0240006C0140E3
:104D4000E414002000B587B01C216846FBF766FC20
:104D50001548144900F1080C0160002104222023A9
:104D600041608CE80E00402343614FF4C073C0E9FA
:104D700006310162910241628900816202200721AD
:104D80008DE8070003910321CDE9041006906946E0
:104D90000548FFF7E5F9FBF7B1FFFBF7C7FF07B0E1
:104DA00000BD0000400100A0481600202DE9F0479A
:104DB00086B014216846FBF731FC50480024016896
:104DC00041F010010160016801F0100105910168D6
:104DD00041F002010160016801F0020105910168E2
:104DE00041F040010160016801F040010591016856
:104DF00041F008010160016801F0080105910168B6
:104E000041F480710160016801F4807105910168CD
:104E100041F020010160016801F020010591016865
:104E200041F480610160016801F4806105910168CD
:104E300041F080010160016801F080010591016885
:104E400041F004010160016801F00401059101686D
:104E500041F001010160016801F001010591016863
:104E600041F4007101600068254F00F400704FF4B8
:104E700080550590002229463846FDF7F2FCDFF800
:104E80008480012208214046FDF7EBFCDFF8789092
:104E9000002246214846FDF7E4FCDFF870A000221E
:104EA00080215046FDF7DDFC009503260125039681
:104EB000CDE9015469463846FDF7ACFB0820009067
:104EC0001120CDE90104694640460394FDF7A2FB99
:104ED0004620CDE90005CDE9024669464846FDF782
:104EE00099FB8020CDE90005CDE902466946504690
:104EF000FDF790FB06B0BDE8F087000030380240B7
:104F0000001802400028024000000240001C02403D
:104F10000C4810B50A4901600B49416000214FF46B
:104F200080428160C0E9031241618161C161016217
:104F3000FDF7BEFCBDE810400248FDF79DBC000037
:104F40000054004000150020801A060070B59CB087
:104F5000342101A8FBF762FB3A4D39480024286050
:104F6000000568604008C5E902040120C5E9044065
:104F70000226C5E90606CA20C5E908604FF4F170AB
:104F8000A862CB20E86240F2E310286385F8344041
:104F900085F8354085F836402846FEF743F8C820A6
:104FA000CDE901404FF4F0710596CDE90341FF22B0
:104FB000CDE9062472020892052209924A060A9255
:104FC000CDE90B018DF834408DF835408DF8364031
:104FD000002201A92846FDF795FF2868816921F084
:104FE00001018161A5F17000FDF772F90121022034
:104FF00000F056F8282315220021A5F17000009436
:10500000FDF755F90E940F94109411941294139483
:1050100014941594169417940EA9A5F17000189481
:10502000FCF71AFD00224FF448712846FEF7AAF853
:105030002868816941F0010181611CB070BD0000E8
:1050400000680140541500200E4810B50C4901605D
:105050000121416081601021C1601B2101614FF479
:105060008061416100218161C1610162FEF76CFADA
:10507000FBF744FDFBF77AFDBDE81040FBF752BD9E
:10508000001000A0FC15002010B512F0DBFFBDE8F9
:10509000104012F0D9BF7047FEE77047FDF768B9BE
:1050A00030B50446AFB00D467820FFF7F7FF99A062
:1050B000D0E90010CDE9011098A000680F9098A0E9
:1050C0000068109097A00068119097A00068129057
:1050D00096A00068139096A00068149095A00068B0
:1050E000159095A00068169094A00068179094A061
:1050F0000068189093A00068199093A000681A9017
:1051000092A000681B9092A000681C9091A0D0E92A
:105110000010CDE9031091A000681D9090A00068D8
:105120001E9090A000681F908FA0006820908FA014
:10513000D0E90010CDE905108EA0006821908EA066
:10514000006822908DA0006823908DA000682490B4
:105150008CA0D0E90010CDE907108CA0D0E9001098
:10516000CDE909108BA0006825908BA0D0E9001034
:10517000CDE90B108AA1D1E90001CDE90D018AA08A
:1051800001A90068269089A00068279088A000687F
:10519000289088A00068299087A000682A9087A09E
:1051A00000682B9086A000682C9086A000682D9047
:1051B00085A000682E9085A0006800900520FCF76F
:1051C00081F80FA90320FCF77DF810A90320FCF754
:1051D00079F811A90320FCF775F812A90320FCF750
:1051E00071F813A90320FCF76DF814A90320FCF74C
:1051F00069F815A90120FCF765F816A90320FCF74A
:1052000061F817A90320FCF75DF818A90320FCF743
:1052100059F819A90320FCF755F81AA90320FCF73F
:1052200051F81BA90320FCF74DF81CA90220FCF73C
:1052300049F803A90520FCF745F81DA90220FCF751
:1052400041F81EA90120FCF73DF81FA90120FCF739
:1052500039F820A90220FCF735F805A90420FCF74D
:1052600031F821A90320FCF72DF822A90320FCF72F
:1052700029F823A90120FCF725F826A90020FCF72E
:1052800021F869460020FCF71DF8C820FFF706FF4B
:10529000BDB125A90120FCF715F80BA90420FCF7E6
:1052A00011F80DA90420FCF70DF827A90020FCF740
:1052B00009F87820FFF7F2FE0CB1022C0BD06946FA
:1052C0000AE024A90120FBF7FDFF07A90420FBF752
:1052D000F9FF09A9E6E72EA90120FBF7F3FF29A9A9
:1052E0000120FBF7EFFF2AA90120FBF7EBFF2BA919
:1052F0000120FBF7E7FF2CA90120FBF7E3FF28A91A
:105300000020FBF7DFFF2DA90020FBF7DBFF2FB00C
:10531000002030BD55AA520801F00000030303B07D
:10532000464646B6030303B1363636B7000002B22E
:10533000262626B8BF010000090909B3363636B95A
:10534000080808B5262626BA008000BC008000BDEB
:105350000050BE0055AA520800F00000FC00B10049
:10536000B6030000B55100000000B70001020202C0
:10537000B8000000000000BC030000CCBA0100002F
:1053800036000000000001DF2A0000000000031FBB
:105390002B000000366000000000031F2A00000000
:1053A000000001DF2B0000003500000011000000AC
:1053B00029000000517F0000532C0000550200001E
:1053C0005EFF00002C0000003A5500003A77000014
:1053D00000B595B04FF4807206920522009200222B
:1053E0004FF08073CDE908230792059201230B92B9
:1053F0000C920D92CDE90E23CDE9113210221092BC
:1054000092040B4613920EAA6946FDF7EFFF00289F
:1054100000D0012015B000BDF0B54B6A4FF04066DA
:105420002BB1B24203D08B6A04685B1E23618D6985
:1054300000240B6A002D5AD063B305688B68EB61BA
:10544000CD69BDB1D1E90B3423434F6A4C6B3C436A
:1054500023438C8A43EA84430C6923430C6A234325
:10546000CC6823438C692B43234325E000684968BB
:105470008161F0BDD1E90B352B434E6A4D6B35434D
:105480002B438D8A43EA85430D692B430D6A2B43D9
:105490008D6923E0CF69BFB1D1E90B342343D1F843
:1054A00024C04C6B44EA0C0423438C8A43EA8443B3
:1054B000CC6823433B432B430C68234304681343CA
:1054C0006361B242D2D1F0BDD1E90B3633434F6AAA
:1054D0004E6B3E4333438E8A43EA864309682B432F
:1054E0000B43016813434B6100688461F0BD3BB31B
:1054F00005688B68EB61CD6995B1D1E90B34234325
:105500004F6A4C6B3C4323438C8A43EA84430C69C7
:1055100023430C6A2343CC6823432B438C69CCE799
:10552000D1E90B352B434E6A4D6B35432B438D8AA6
:1055300043EA85430D692B430D6A89692B43CFE705
:10554000CD696DB1D1E90B3423434F6A4C6B3C43B9
:1055500023438C8A43EA8443CC6823432B43ADE73F
:105560004B6A002BC2D0D1E90B5635434E6B898A6A
:105570001E43354345EA8141114302685161B3E757
:1055800030B58FB005464FF480700690852000211D
:1055900000904FF08070CDE908100120059107912F
:1055A000CDE90A010C9141F288340D9122466946F9
:1055B0002846FDF771FF30BB22460EA92846FEF7AC
:1055C000D3F800BB284600F06EF8E0B98120F02245
:1055D000009092FAA2F29DF838000A21B2FA82F203
:1055E000914020F0F00008438DF8380022466946CB
:1055F0002846FDF751FF30B922460EA92846FEF78E
:1056000015F9002800D001200FB030BD30B58FB0A3
:10561000002105464FF480700690059166200791A1
:10562000089109910B910C9141F288340D910090F1
:10563000224669462846FDF72FFF68B99920009059
:10564000224669462846FDF727FF28B92146284605
:10565000FFF7BEFE002800D001200FB030BD2DE9BD
:10566000F041984616460F460446069D08E0681C21
:1056700006D0FDF7FBF8A0EB0800A8420AD84DB110
:1056800020688068384000D00120B042EFD100206F
:10569000BDE8F081042084F84100606C40F0010016
:1056A00060640120F4E770B594B0002406464FF41E
:1056B00080700690062005940794089441F288357E
:1056C000009009940B940C942A4669460D94304638
:1056D000FDF7E2FEB0B902200E900F900120CDE957
:1056E00011041020109080041390052000904FF0BA
:1056F000807009902B460EAA69463046FDF776FE6B
:10570000002800D0012014B070BD642011F082FE8A
:10571000FBE710B54FF0E020006913F095FC01287D
:1057200003D0BDE8104013F001B810BD30B593B000
:1057300034216846FAF772FF14210DA8FAF76EFFBC
:105740001C480025016841F080510160006800F0AC
:10575000805012901848016841F44041016000688F
:10576000022400F4404012900120009000040190B7
:105770008001CDE90640082008904FF4B470CDE9CF
:10578000090404200B9006200C906846FEF71AFBD3
:10579000FDF7ACFD0DA90F2081E831004FF4A050BA
:1057A0001090E002119005210DA8FEF711FA13B038
:1057B00030BD0000403802400070004005480168DC
:1057C00041F47001016003494FF0006080390860C6
:1057D0007047000088ED00E00148FEF7D0BD0000F2
:1057E0007C160020F0B50268294C2A4D2A4E2B4F1A
:1057F0002B4B4FF0804CA04209D0604507D0A84207
:1058000005D0B04203D0B84201D0984204D122F072
:10581000700E4A6842EA0E02A0421BD0604519D0C1
:10582000A84217D0B04215D0B84213D0984211D038
:105830001C4DA8420ED01C4DA8420BD01B4DA842B7
:1058400008D01B4DA84205D01A4DA84202D01A4DCF
:10585000A84203D122F44075CA682A434D6922F058
:1058600080022A4302608A68C2620A688262A04299
:1058700001D0984201D109690163012141610169A7
:10588000C90703D0016921F001010161F0BD0000E9
:10589000000001400004004000080040000C0040EF
:1058A0000004014000400140004401400048014024
:1058B00000180040001C004000200040FEF710BE11
:1058C0001FB5044600200A468DF80C004FF47A7389
:1058D000012103A88DE80B000B4621460548FDF782
:1058E000ABF810B12046FEF7F1FD9DF80C0004B0B6
:1058F00010BD0000C416002008B500931346012215
:10590000FEF75EFE08BD00001FB5134604460A46BA
:105910008DF80C306423012103A88DE80B000B46A1
:1059200021460448FDF78AF9002802D02046FEF7F8
:10593000CDFD1FBDC416002012F0C8BBFEE700005D
:10594000024800684068016849690847D40200209D
:10595000FEE7000000B516488DB00078C00724D1DE
:10596000134811F036F800B300203F21CDE90910AB
:105970000B901049104A0C9005900690CDE9072134
:105980000422CDE90202019001210A20049103467C
:105990000A46009009490A4803F060F9094A0A4991
:1059A000FAF7A6FD0248AFF300800DB0044800BD31
:1059B0006401002024AD010834AD0108D4BC0B9073
:1059C000B4A5002000000008A58C000800B516480A
:1059D0008DB00078C00724D1134810F0FAFF00B34F
:1059E00000203F21CDE909100B901049104A0C907E
:1059F00005900690CDE907210422CDE9020201902D
:105A0000012114200491009018230F2209490A480B
:105A100003F024F9094A0A49FAF76AFD0248AFF38C
:105A200000800DB0044800BD6801002028AD0108C9
:105A300038AD0108E4BC0B90E0A500200000000890
:105A4000A58C000800B516488DB00078C00724D199
:105A5000134810F0BEFF00B300203F21CDE909102C
:105A60000B901049104A0C9005900690CDE9072143
:105A70000422CDE90202019001212820049103466D
:105A80000A46009009490A4803F0E8F8094A0A4919
:105A9000FAF72EFD0248AFF300800DB0044800BDB8
:105AA0006C01002030AD01083CAD0108B8BD0B9081
:105AB0000CA6002000000008A58C000800F0E6B845
:105AC0007047000010B500F0E3F80149016010BD17
:105AD0007497010800F0BCBC024A0021517005F027
